{
  "_format": "hh-sol-artifact-1",
  "contractName": "LeaseAgreement",
  "sourceName": "contracts/LeaseAgreement.sol",
  "abi": [
    {
      "inputs": [
        {
          "internalType": "address",
          "name": "_tenant",
          "type": "address"
        },
        {
          "internalType": "uint256",
          "name": "_rentAmount",
          "type": "uint256"
        },
        {
          "internalType": "uint256",
          "name": "_securityDeposit",
          "type": "uint256"
        },
        {
          "internalType": "uint256",
          "name": "_leaseDuration",
          "type": "uint256"
        }
      ],
      "stateMutability": "nonpayable",
      "type": "constructor"
    },
    {
      "anonymous": false,
      "inputs": [
        {
          "indexed": true,
          "internalType": "address",
          "name": "landlord",
          "type": "address"
        },
        {
          "indexed": true,
          "internalType": "address",
          "name": "tenant",
          "type": "address"
        },
        {
          "indexed": false,
          "internalType": "uint256",
          "name": "rentAmount",
          "type": "uint256"
        },
        {
          "indexed": false,
          "internalType": "uint256",
          "name": "leaseEnd",
          "type": "uint256"
        }
      ],
      "name": "LeaseSigned",
      "type": "event"
    },
    {
      "anonymous": false,
      "inputs": [
        {
          "indexed": true,
          "internalType": "address",
          "name": "terminatedBy",
          "type": "address"
        }
      ],
      "name": "LeaseTerminated",
      "type": "event"
    },
    {
      "anonymous": false,
      "inputs": [
        {
          "indexed": true,
          "internalType": "address",
          "name": "tenant",
          "type": "address"
        },
        {
          "indexed": false,
          "internalType": "uint256",
          "name": "amount",
          "type": "uint256"
        }
      ],
      "name": "RentPaid",
      "type": "event"
    },
    {
      "inputs": [],
      "name": "isActive",
      "outputs": [
        {
          "internalType": "bool",
          "name": "",
          "type": "bool"
        }
      ],
      "stateMutability": "view",
      "type": "function"
    },
    {
      "inputs": [],
      "name": "landlord",
      "outputs": [
        {
          "internalType": "address",
          "name": "",
          "type": "address"
        }
      ],
      "stateMutability": "view",
      "type": "function"
    },
    {
      "inputs": [],
      "name": "leaseEnd",
      "outputs": [
        {
          "internalType": "uint256",
          "name": "",
          "type": "uint256"
        }
      ],
      "stateMutability": "view",
      "type": "function"
    },
    {
      "inputs": [],
      "name": "leaseStart",
      "outputs": [
        {
          "internalType": "uint256",
          "name": "",
          "type": "uint256"
        }
      ],
      "stateMutability": "view",
      "type": "function"
    },
    {
      "inputs": [],
      "name": "payRent",
      "outputs": [],
      "stateMutability": "payable",
      "type": "function"
    },
    {
      "inputs": [],
      "name": "rentAmount",
      "outputs": [
        {
          "internalType": "uint256",
          "name": "",
          "type": "uint256"
        }
      ],
      "stateMutability": "view",
      "type": "function"
    },
    {
      "inputs": [],
      "name": "securityDeposit",
      "outputs": [
        {
          "internalType": "uint256",
          "name": "",
          "type": "uint256"
        }
      ],
      "stateMutability": "view",
      "type": "function"
    },
    {
      "inputs": [],
      "name": "signLease",
      "outputs": [],
      "stateMutability": "payable",
      "type": "function"
    },
    {
      "inputs": [],
      "name": "tenant",
      "outputs": [
        {
          "internalType": "address",
          "name": "",
          "type": "address"
        }
      ],
      "stateMutability": "view",
      "type": "function"
    },
    {
      "inputs": [],
      "name": "terminateLease",
      "outputs": [],
      "stateMutability": "nonpayable",
      "type": "function"
    }
  ],
  "bytecode": "0x608060405234801561001057600080fd5b50604051610c9b380380610c9b83398181016040528101906100329190610197565b336000806101000a81548173ffffffffffffffffffffffffffffffffffffffff021916908373ffffffffffffffffffffffffffffffffffffffff16021790555083600160006101000a81548173ffffffffffffffffffffffffffffffffffffffff021916908373ffffffffffffffffffffffffffffffffffffffff16021790555082600281905550816003819055504260048190555080426100d4919061022d565b6005819055506001600660006101000a81548160ff02191690831515021790555050505050610261565b600080fd5b600073ffffffffffffffffffffffffffffffffffffffff82169050919050565b600061012e82610103565b9050919050565b61013e81610123565b811461014957600080fd5b50565b60008151905061015b81610135565b92915050565b6000819050919050565b61017481610161565b811461017f57600080fd5b50565b6000815190506101918161016b565b92915050565b600080600080608085870312156101b1576101b06100fe565b5b60006101bf8782880161014c565b94505060206101d087828801610182565b93505060406101e187828801610182565b92505060606101f287828801610182565b91505092959194509250565b7f4e487b7100000000000000000000000000000000000000000000000000000000600052601160045260246000fd5b600061023882610161565b915061024383610161565b925082820190508082111561025b5761025a6101fe565b5b92915050565b610a2b806102706000396000f3fe6080604052600436106100915760003560e01c8063a709c4fe11610059578063a709c4fe14610159578063adf0779114610163578063ceabe35d1461018e578063dc1997ea14610198578063f8ef1e13146101c357610091565b80630cc63ea4146100965780631168c9a8146100c1578063220e5ab3146100d857806322f3e2d41461010357806387822b621461012e575b600080fd5b3480156100a257600080fd5b506100ab6101ee565b6040516100b891906106f2565b60405180910390f35b3480156100cd57600080fd5b506100d66101f4565b005b3480156100e457600080fd5b506100ed61033a565b6040516100fa91906106f2565b60405180910390f35b34801561010f57600080fd5b50610118610340565b6040516101259190610728565b60405180910390f35b34801561013a57600080fd5b50610143610353565b60405161015091906106f2565b60405180910390f35b610161610359565b005b34801561016f57600080fd5b50610178610506565b6040516101859190610784565b60405180910390f35b61019661052c565b005b3480156101a457600080fd5b506101ad6106af565b6040516101ba9190610784565b60405180910390f35b3480156101cf57600080fd5b506101d86106d3565b6040516101e591906106f2565b60405180910390f35b60055481565b60008054906101000a900473ffffffffffffffffffffffffffffffffffffffff1673ffffffffffffffffffffffffffffffffffffffff163373ffffffffffffffffffffffffffffffffffffffff16148061029b5750600160009054906101000a900473ffffffffffffffffffffffffffffffffffffffff1673ffffffffffffffffffffffffffffffffffffffff163373ffffffffffffffffffffffffffffffffffffffff16145b6102da576040517f08c379a00000000000000000000000000000000000000000000000000000000081526004016102d1906107fc565b60405180910390fd5b6000600660006101000a81548160ff0219169083151502179055503373ffffffffffffffffffffffffffffffffffffffff167f4c947305cb315af793147362bba194be57071610ab7d253e6eb18ef000ed8b7460405160405180910390a2565b60035481565b600660009054906101000a900460ff1681565b60045481565b600160009054906101000a900473ffffffffffffffffffffffffffffffffffffffff1673ffffffffffffffffffffffffffffffffffffffff163373ffffffffffffffffffffffffffffffffffffffff16146103e9576040517f08c379a00000000000000000000000000000000000000000000000000000000081526004016103e090610868565b60405180910390fd5b600254341461042d576040517f08c379a0000000000000000000000000000000000000000000000000000000008152600401610424906108d4565b60405180910390fd5b60008054906101000a900473ffffffffffffffffffffffffffffffffffffffff1673ffffffffffffffffffffffffffffffffffffffff166108fc349081150290604051600060405180830381858888f19350505050158015610493573d6000803e3d6000fd5b50600160009054906101000a900473ffffffffffffffffffffffffffffffffffffffff1673ffffffffffffffffffffffffffffffffffffffff167f03b5033869479e8a98af42b272f05933f60489fe9fb43d63e11a6c31f3fa7474346040516104fc91906106f2565b60405180910390a2565b600160009054906101000a900473ffffffffffffffffffffffffffffffffffffffff1681565b600160009054906101000a900473ffffffffffffffffffffffffffffffffffffffff1673ffffffffffffffffffffffffffffffffffffffff163373ffffffffffffffffffffffffffffffffffffffff16146105bc576040517f08c379a00000000000000000000000000000000000000000000000000000000081526004016105b390610940565b60405180910390fd5b6003543414610600576040517f08c379a00000000000000000000000000000000000000000000000000000000081526004016105f7906109ac565b60405180910390fd5b600160009054906101000a900473ffffffffffffffffffffffffffffffffffffffff1673ffffffffffffffffffffffffffffffffffffffff1660008054906101000a900473ffffffffffffffffffffffffffffffffffffffff1673ffffffffffffffffffffffffffffffffffffffff167fc6e00993d7b18f5dac3d93bda0fe8f85f75251700222747f3743842ab10fec686002546005546040516106a59291906109cc565b60405180910390a3565b60008054906101000a900473ffffffffffffffffffffffffffffffffffffffff1681565b60025481565b6000819050919050565b6106ec816106d9565b82525050565b600060208201905061070760008301846106e3565b92915050565b60008115159050919050565b6107228161070d565b82525050565b600060208201905061073d6000830184610719565b92915050565b600073ffffffffffffffffffffffffffffffffffffffff82169050919050565b600061076e82610743565b9050919050565b61077e81610763565b82525050565b60006020820190506107996000830184610775565b92915050565b600082825260208201905092915050565b7f556e617574686f72697a65640000000000000000000000000000000000000000600082015250565b60006107e6600c8361079f565b91506107f1826107b0565b602082019050919050565b60006020820190508181036000830152610815816107d9565b9050919050565b7f4f6e6c792074656e616e742063616e207061792072656e740000000000000000600082015250565b600061085260188361079f565b915061085d8261081c565b602082019050919050565b6000602082019050818103600083015261088181610845565b9050919050565b7f496e636f72726563742072656e7420616d6f756e740000000000000000000000600082015250565b60006108be60158361079f565b91506108c982610888565b602082019050919050565b600060208201905081810360008301526108ed816108b1565b9050919050565b7f4f6e6c792074656e616e742063616e207369676e20746865206c656173650000600082015250565b600061092a601e8361079f565b9150610935826108f4565b602082019050919050565b600060208201905081810360008301526109598161091d565b9050919050565b7f496e636f7272656374207365637572697479206465706f736974000000000000600082015250565b6000610996601a8361079f565b91506109a182610960565b602082019050919050565b600060208201905081810360008301526109c581610989565b9050919050565b60006040820190506109e160008301856106e3565b6109ee60208301846106e3565b939250505056fea26469706673582212207d515ca7a7e8d7c57da100d240642b51b914627fea716d64b398f9ec7c53ba8164736f6c634300081c0033",
  "linkReferences": {},
  "deployedLinkReferences": {}
}